:020000040800F2
:100000007004002025020008511000084910000863
:100010004D10000881030008951200080000000040
:100020000000000000000000000000008F10000829
:1000300085030008000000008D1000085D11000815
:100040003F0200083F0200083F0200083F0200088C
:100050003F0200083F0200083F0200083F0200087C
:100060003F0200083F0200083F0200083F0200086C
:100070003F0200083F0200083F0200083F0200085C
:100080003F0200083F0200083F0200083F0200084C
:100090003F0200083F0200083F0200083F0200083C
:1000A0003F0200083F0200083F0200083F0200082C
:1000B0003F0200083F0200083F0200083F0200081C
:1000C0003F0200083F0200083F0200083F0200080C
:1000D0003F0200083F0200083F0200083F020008FC
:1000E0003F0200083F0200083F0200083F020008EC
:1000F0003F0200083F0200083F0200083F020008DC
:100100003F0200083F0200083F0200083F020008CB
:100110003F0200083F0200083F0200083F020008BB
:100120003F0200083F0200083F0200083F020008AB
:100130003F0200083F0200083F0200083F0200089B
:100140003F0200083F0200083F0200083F0200088B
:100150003F0200083F0200083F0200083F0200087B
:100160003F0200083F0200083F0200083F0200086B
:100170003F0200083F0200083F02000800000000A4
:100180003F0200083F020008DFF810D000F0E6F858
:1001900000480047ED170008AFF30080700400200E
:1001A0000246D2E84F0F411CC2E8431F03B1F8E7F3
:1001B0007047024652E8000F411C42E8001303B1A9
:1001C000F8E770470246D2E84F0FC2E8431F03B179
:1001D000F9E77047024652E8000F42E8001303B106
:1001E000F9E77047024652E8000F830103D3BFF3DB
:1001F0002F8F0020704700F00040084342E80003C2
:1002000003B1F0E77047024652E8000F800103D2C5
:10021000BFF32F8F0020704742E8001303B1F3E7CC
:10022000012070470648804706480047FEE7FEE782
:10023000FEE7FEE7FEE7FEE7FEE7FEE7FEE7FEE796
:1002400031120008890100082DE9F05F0546002001
:1002500092469B4688460646814640241BE0284637
:1002600041464746224600F069F853465A46C01AAE
:10027000914110D311461846224600F050F82D1A2D
:1002800067EB01084F4622460120002100F047F8A5
:1002900017EB00094E41201EA4F10104DFDC4846A3
:1002A00031462A464346BDE8F09F40EA01039B07DA
:1002B00003D009E008C9121F08C0042AFAD203E0DB
:1002C00011F8013B00F8013B521EF9D27047D2B23F
:1002D00001E000F8012B491EFBD270470022F6E72F
:1002E00010B513460A4604461946FFF7F0FF2046AC
:1002F00010BD30B50B46014600202022012409E044
:1003000021FA02F59D4205D303FA02F5491B04FACE
:1003100002F52844151EA2F10102F1DC30BD202AAD
:1003200004DB203A00FA02F1002070479140C2F14C
:10033000200320FA03F3194390407047202A04DB7E
:10034000203A21FA02F00021704721FA02F3D0404E
:10035000C2F120029140084319467047064C074DF0
:1003600006E0E06840F0010394E807009847103485
:10037000AC42F6D3FFF70CFF80190008A019000863
:1003800000BFFEE7704700000146074A12780AB92D
:10039000002008E0054AC1F3C623D25CC1F3022362
:1003A000DA4002F001007047C08001204080012047
:1003B00070B500BF1248866900F020FA0446B442C6
:1003C00011D200BF01210F48FFF7FCFE58B90C48BD
:1003D0000069401C0A49086100BF00210948FFF775
:1003E000F1FE00BF00BF00BF214605481830FFF7EF
:1003F000F1FE054600BFAE42DCD1204670BD0000D4
:10040000C0800120000001202DE9F04104460D4686
:1004100016462046FFF7B8FF10B90120BDE8F0816D
:10042000FFF7C6FF0746A4B200BFEFF3058010B187
:100430004FF4002000E00020044344F040703346B5
:100440002A46394600F090F880464046E6E72DE916
:10045000FC47044688461546B8F1000F02D0B5F5B2
:10046000807F02D90020BDE8FC872046FFF78CFF83
:1004700008B90120F7E7FFF79BFF8246A4B200BF4F
:10048000EFF3058010B14FF4002000E0002004439A
:10049000464645B900231A465146204600F064F806
:1004A00007463846DFE7082D16D800200090019057
:1004B0002A4631466846FFF7F8FE4FF4E02000EA8E
:1004C0000540044344F040705146DDE9002300F04C
:1004D0004BF807463846C6E700F0AEF94FF4E02186
:1004E00001EA004930680090706801900836083DC4
:1004F00044EA090444F080705146DDE9002300F02D
:1005000033F807460FB90020ADE74FF6017049EA0E
:10051000000410E030680090706801900836083DD3
:1005200051462046DDE9002300F01EF80746641C12
:100530000FB9002097E7082DECD80020009001901B
:100540002A4631466846FFF7B0FE24F47F4444EA69
:10055000052444F000705146DDE9002300F004F862
:10056000074638467FE700002DE9FF4F81B08846F7
:1005700091469A464FF0070B51E000BF2E48FFF717
:1005800018FE0646C6F30A002C4901EB0014F00AD7
:100590004FF4700101EA00510091DDE900100843B9
:1005A0004FF0805101EAD80108434FF0005101EAB1
:1005B000990108434FF0804101EA5A01084340F095
:1005C0004065294604F10C00FFF70CFE054605F0D6
:1005D000806010B385F0806585F0004505F0004728
:1005E00028F000403843206029F000403843606024
:1005F0002AF000403843A060294604F10C00FFF7C0
:1006000002FE48B100BF0C48001DFFF7D2FD00BF3D
:10061000012005B0BDE8F08F04E0ABF1010BBBF1A8
:10062000000FAAD100BF00BF03480830FFF7C1FD8B
:1006300000BF0020EDE70000C48001204000012041
:10064000F0B506460C461546FF2C01D2FF2D01D30E
:100650000020F0BD002200231AE001209840304025
:10066000A0B1214610E002EBD1000B4F385C01F045
:10067000070C012707FA0CF7384302EBD107DFF824
:1006800018C00CF80700491CA942ECD920325B1CA9
:10069000042BE2D30120DCE7408001202DE9F05F4C
:1006A0008246894600204249087080214148FFF770
:1006B00015FE1821404801F03DF880463C48006A8C
:1006C0003E49884208D00846394908620846A0F8E1
:1006D00002800120C8610FE035484088404506D0BF
:1006E0003348A0F8028001203149C86104E0304855
:1006F000C069401C2E49C8612D48C06901280BD132
:1007000000202B49487048608860C8604FF4004161
:100710002B48FFF7E3FD10E000270BE0284800EB33
:100720000715E86800F0806018B1E86820F04060C4
:10073000E8607F1CB7F5006FF0D31D48C069012841
:1007400011D100F067F804461CB100F05DF80646D0
:1007500000E00026164846610020154988610861BE
:100760001849087002E000F055F80446ECB1FE228A
:1007700000215046FFF764FFEF2211460F20FFF7DC
:100780005FFFFE2211460420FFF75AFFFFF710FE1D
:100790008346074800235946C2690B48FFF7E4FE29
:1007A000B9F1000F01D000F011F82046BDE8F09F2C
:1007B000C080012040800120681900086B27A5E156
:1007C000400001200000012000FF000310B509488F
:1007D000007808B1012010BD012006490870FFF71C
:1007E000E7FD044600231A4621460348FFF7BCFEF6
:1007F0000120F0E7C080012001FF000301484068AC
:1008000070470000001000E00148006870470000D9
:10081000040000200648006840F080700449086029
:100820000448006840F00100024908600120704758
:10083000FCED00E0001000E010B50248FFF7B0FC4E
:1008400010BD0000C180012001480068000C704705
:10085000002004E0014800687047000010000020FC
:100860000348006803490978084401490860704753
:10087000100000201800002010B50A48006840F45D
:100880000070084908600846006840F4806008600D
:10089000032000F06FF80F2000F006F800F02AF8AF
:1008A000002010BD003C024070B504460E480078A0
:1008B0004FF47A71B1FBF0F00C490968B1FBF0F527
:1008C000284600F0A7FB08B1012070BD102C07D20C
:1008D00000222146501E00F00EF80548046001E099
:1008E0000120F2E70020F0E71800002004000020BB
:1008F0001400002070472DE9F05F80460D46164633
:10090000002700F0A7FB074639462A46334601F088
:100910000700C0F1070ABAF1040F02D94FF0040A28
:1009200001E0C0F1070AD14600F1040ABAF1070F4D
:1009300002D24FF0000A01E0A0F1030AD4464FF0C2
:10094000010A0AFA09FAAAF1010A0AEA020A0AFAEB
:100950000CFA4FF0010B0BFA0CFBABF1010B0BEA9D
:10096000030B4AEA0B042146404600F07BFBBDE83E
:10097000F09F000000BF00F00702064B19684FF619
:10098000FF031940044B0B4343EA0221014B19605A
:1009900000BF70470CED00E00000FA0570B504469A
:1009A0000D460CB9012070BD5848006800F00F00DA
:1009B000A84209D255490D700846006800F00F00A2
:1009C000A84201D00120EEE7207800F002000228C2
:1009D0001DD1207800F00400042805D14C4800689F
:1009E00040F4E0504A490860207800F008000828E8
:1009F00005D14748006840F46040454908604448D4
:100A0000006820F0F000A1680843414908602078A0
:100A100000F00100A8B36068012807D13C480838FD
:100A20000068C0F34040B8B90120BCE76068022804
:100A300002D06068032807D1354808380068C0F341
:100A4000406048B90120AEE7314808380068C0F37B
:100A5000400008B90120A6E72D48006820F00300F7
:100A6000616808432A490860FFF7F4FE064609E07A
:100A7000FFF7F0FE801B41F28831884202D9032043
:100A800091E707E02248006800F00C006168B0EBD5
:100A9000810FEDD11D48006800F00F00A84209D970
:100AA0001A490D700846006800F00F00A84201D0F6
:100AB000012078E7207800F00400042807D11448CA
:100AC000006820F4E050E16808431149086020788C
:100AD00000F00800082808D10D48006820F46040A4
:100AE000216940EAC1000A49086000F017F8084986
:100AF0000968C1F30311074A515CC8400649086000
:100B00000F20FFF7D1FE00204DE70000003C02401F
:100B10000838024028190008040000202DE9F04799
:100B2000002400250026A1462548006800F00C009E
:100B300020B1042805D008283AD105E0DFF88490D8
:100B400039E0DFF8849036E01D48001F006800F0AF
:100B50003F041B48001F006800F4800078B11A4869
:100B60001749091F0968C1F38811A0FB01700146EC
:100B7000224600233846FFF767FB05460EE0114882
:100B80000F49091F0968C1F38811A0FB01700146D4
:100B9000224600233846FFF757FB05460848001F4A
:100BA0000068C0F30140401C4600B5FBF6F902E0C6
:100BB000DFF8109000BF00BF4846BDE8F087000096
:100BC000083802400024F40000127A00F8B5044608
:100BD0000CB90120F8BD207800F00100002874D085
:100BE000F948006800F00C0004280DD0F6480068B1
:100BF00000F00C00082813D1F348001F006800F42F
:100C00008000B0F5800F0BD1EF4808380068C0F3C2
:100C10004040002859D06068002856D10120D9E70B
:100C200000BF6068B0F5803F08D1E7480838006829
:100C300040F48030E449083908601EE06068B0F58F
:100C4000A02F0DD1E0480838006840F48020DE492C
:100C5000083908600846006840F4803008600CE0FD
:100C6000D9480838006820F48030D749083908602E
:100C70000846006820F48020086000BF606890B1DA
:100C8000FFF7E8FD054606E0FFF7E4FD401B64289A
:100C900001D903209EE7CC4808380068C0F34040E3
:100CA0000028F1D011E0FFF7D5FD054606E0FFF77B
:100CB000D1FD401B642801D903208BE7C2480838C6
:100CC0000068C0F340400028F1D1207800F0020015
:100CD00002285FD1BC48006800F00C0058B1BA4847
:100CE000006800F00C0008281CD1B748001F0068FD
:100CF00000F48000B0B9B44808380068C0F3400080
:100D000020B1E068012801D0012063E7AE4808382F
:100D1000006820F0F800216940EAC100AA490839BA
:100D2000086037E0E06800B30120A8490860FFF7D9
:100D300091FD054606E0FFF78DFD401B022801D915
:100D4000032047E7A04808380068C0F340000028A7
:100D5000F1D09D480838006820F0F800216940EA89
:100D6000C10099490839086014E0002097490860DB
:100D7000FFF770FD054606E0FFF76CFD401B0228FB
:100D800001D9032026E7904808380068C0F34000E6
:100D90000028F1D1207800F0080008282CD16069E3
:100DA000A8B101208A490860FFF754FD054606E016
:100DB000FFF750FD401B022801D903200AE78248B3
:100DC0006C300068C0F340000028F1D014E000202F
:100DD0007F490860FFF73EFD054606E0FFF73AFD54
:100DE000401B022801D90320F4E677486C300068E4
:100DF000C0F340000028F1D1207800F0040004285E
:100E000070D1002670483830006800F0805090B9EA
:100E100000BF002000906C483830006840F08050DF
:100E20006949383108600846006800F08050009039
:100E300000BF00BF01266748006800F48070B0B9A9
:100E40006448006840F4807062490860FFF702FD62
:100E5000054606E0FFF7FEFC401B022801D90320EF
:100E6000B8E65C48006800F480700028F2D000BF4B
:100E7000A068012808D154486830006840F001009B
:100E80005149683108601DE0A06805280DD14E4821
:100E90006830006840F004004B496831086008463B
:100EA000006840F0010008600CE0474868300068C6
:100EB00020F001004449683108600846006820F0CD
:100EC0000400086000BFA068A8B1FFF7C3FC054696
:100ED00009E0FFF7BFFC401B41F28831884202D98C
:100EE000032077E626E0384868300068C0F3400009
:100EF0000028EED013E0FFF7ADFC054608E0FFF751
:100F0000A9FC401B41F28831884201D9032061E6E7
:100F10002D4868300068C0F340000028EFD1012E52
:100F200007D129483830006820F0805026493831F0
:100F3000086000BFA069B8B32348006800F00C0047
:100F400008285ED0A069022846D100201F49086603
:100F5000FFF780FC054606E0FFF77CFC401B0228FB
:100F600001D9032036E6184808380068C0F340600D
:100F70000028F1D1D4E907010843616A40EA8111F0
:100F80000122A06AC2EB500041EA00412C20005D22
:100F900041EA00600C49091F086001200B490866FE
:100FA000FFF758FC054607E02DE0FFF753FC401B18
:100FB000022801D903200DE6034808380068C0F371
:100FC00040600028F1D01EE008380240000047428F
:100FD000800E47420070004000200C490866FFF771
:100FE00039FC054606E0FFF735FC401B022801D915
:100FF0000320EFE506480068C0F340600028F2D106
:1010000001E00120E6E50020E4E5000000004742A1
:101010000038024070B504462546681EB0F1807F56
:1010200001D301200FE0681E4FF0E02148610F213D
:101030004FF0FF3000F016F800204FF0E0218861FB
:1010400007200861002070BD00BFFEE700BFFEE77B
:101050007047000002480068C0F30220704700009B
:101060000CED00E010B5002807DA0A07140E054A57
:1010700000F00F031B1FD45403E00A07130E024AAB
:10108000135410BD18ED00E000E400E07047704715
:101090002DE9F04192B00446884615461E460027C9
:1010A00000BF002000902A48006840F08050284986
:1010B00008600846006800F08050009000BF00BF44
:1010C00000BF002000902348006840F48040214980
:1010D00008600846006800F48040009000BF00BF30
:1010E000012006900004079002200C9041050D910C
:1010F000CDF838800F941095119606A8FFF766FD7D
:1011000007460FB100BFFEE70F20019002200290BA
:10111000002003904FF4A05004904FF480500590AD
:10112000052101A8FFF73AFC07460FB100BFFEE713
:10113000FFF78AFB41F20101884205D106480068A9
:1011400040F480700449086012B0BDE8F0810000EE
:101150004038024000700040003C024010B5FFF7EC
:101160007FFB0448007800B910BD00F005F800BF0F
:10117000FAE700000C00002010B5002425E0284903
:1011800001EB041000F026FA254800EB04108078EB
:10119000012818D1224800EB0410C06898B12049FA
:1011A00001EB0411C868804700201D4901EB0411C0
:1011B00088701B4800EB0410007820B90020184903
:1011C00001EB0411C860601CC4B2042CD7DB1548C5
:1011D0000068401C13490860084600686FF0004131
:1011E000884202D100200F49086000F0E0F90E4863
:1011F0000078401CC0B20C4908700A2803DB0020AC
:10120000087000F0D3F909480078401CC0B20749C3
:101210000870322803DB0020087000F0C9F910BD07
:101220002C000020080000200D0000200E000020EF
:101230001448006840F470001249086012480068C1
:1012400040F001001049086000200F490831086093
:101250000D4800680D4908400B4908600C48091DFD
:101260000860081F006820F48020091F0860002023
:1012700005490C3108604FF0006002498039086070
:101280007047000088ED00E000380240FFFFF6FEE6
:101290001030002400BFFEE70FB4054B10B503A9C2
:1012A000044A029800F01AF810BC5DF814FB000024
:1012B000791700082800002002E008C8121F08C1A2
:1012C000002AFAD170477047002001E001C1121FC7
:1012D000002AFBD1704780F3108870472DE9FF4F3B
:1012E0008BB09A460F460546002606E025280BD00F
:1012F00052460D9990476D1C761C28780028F5D130
:101300000FB03046BDE8F08F0024A04601226049AE
:1013100000E0044315F8013F203B02FA03F00842C5
:10132000F7D128782E2817D115F8010F44F00404BE
:101330002A280ED06FF02F022878A0F13001092959
:101340000AD808EB880102EB410100EB01086D1C93
:10135000F2E757F8048B6D1C287869283ED006DC2C
:101360000028CDD063280BD0642804D136E0732840
:1013700010D075284BD052460D999047761C85E0C9
:1013800017F8040B8DF8000000208DF80100E946E5
:10139000012003E057F8049B4FF0FF3061074FF046
:1013A000000401D40AE0641C44450DDA8442FADBEF
:1013B00019F804100029F6D106E0641C8442FCDB15
:1013C00019F804100029F8D1264404E019F8010B9B
:1013D00052460D999047641EF8D257E001CF4FF066
:1013E0000A0B002802DA40422D2102E0210504D533
:1013F0002B218DF82410012103E0E10705D02021E5
:10140000F7E70DF1200908910CE00021F9E701CF81
:101410004FF00A0BF9E75946FEF76BFF01F1300276
:1014200009F8012D0028F6D1ADEB090000F1200BE1
:10143000600701D44FF00108D84502DDA8EB0B008E
:1014400000E000208046002406E009A85246005D26
:101450000D999047641C761C08988442F5DB04E0E3
:10146000302052460D999047761CB8F10001A8F142
:101470000108F5DC05E019F8010B52460D9990477B
:10148000761CBBF10001ABF1010BF4DC6D1C34E701
:101490000928010030B50446002504E04FF47A70B5
:1014A00000F004F86D1CA542F8D330BDF0B503463A
:1014B00000224FF0E02675690F4E36680F4FB6FBDD
:1014C000F7F606FB03F400BF4FF0E026B16910E029
:1014D0004FF0E026B06988420BD0884202D20E1A43
:1014E000324402E02E1A0E4432440146A24200D396
:1014F00000E0EDE700BFF0BD0400002040420F0017
:1015000070B500201AE00021234A02EB001211708E
:10151000214A02EB001251601F4A02EB0012916057
:101520001D4A02EB001291701B4A02EB001251702F
:10153000194A02EB0012D160411CC8B20428E2DB58
:10154000164909684FF47A73B1FBF3F2511EB1F1F9
:10155000807F00D31BE0511E4FF0E02359615917E3
:101560000F23002907DA1C07260E0D4C01F00F058A
:101570002D1F665503E01C07250E0A4C655400BF5D
:1015800000214FF0E02399610721196100BF01217B
:10159000054A117070BD00002C00002004000020DE
:1015A00018ED00E000E400E00C00002070477047F8
:1015B00010B5054801680068401C034B186003A083
:1015C000FFF76AFE10BD00000000002025640D0A30
:1015D00000000000416851B14168491E416031B9C5
:1015E000012181704178012901D1816841607047F2
:1015F00070B504460D461646042C06DB144A15A1A8
:101600001BA0FFF749FE00BFFEE70120FFF763FEC6
:1016100001201F4901EB041108701D4800EB041064
:1016200045601B4800EB041085600020184901EB61
:10163000041188700120164901EB04114870144808
:1016400000EB0410C6600020FFF745FE70BD0000EF
:10165000531900082E2E5C53595354454D5C746940
:10166000636B74696D5C7469636B74696D2E630080
:101670004572726F723A2066696C652025732C661C
:10168000756E6374696F6E20257328290D0A00003A
:101690002C00002070B504460D461646042C06DBCF
:1016A000134A14A11AA0FFF7F7FD00BFFEE70120BF
:1016B000FFF711FE00201E4901EB041108701C48C1
:1016C00000EB041045601A4800EB04108560002010
:1016D000174901EB04118870154901EB041148709A
:1016E000134800EB0410C6600020FFF7F4FD70BD46
:1016F000401900082E2E5C53595354454D5C7469B3
:10170000636B74696D5C7469636B74696D2E6300DF
:101710004572726F723A2066696C652025732C667B
:10172000756E6374696F6E20257328290D0A000099
:101730002C00002030B502464FF6FF7018E012F87A
:10174000015B80EA052008230FE000F400443CB16F
:101750004FF6FF7404EA400041F22104604003E0C8
:101760004FF6FF7404EA40005B1E002BEDD1491ECA
:101770000029E4D130BD000070B505460C4605488F
:10178000844203D1284600F0A7F870BD4FF0FF3027
:10179000FBE700002800002010B502A0FFF77CFD49
:1017A00010BD0000D6D8B8B4312E3573B5F7D3C309
:1017B0000D0A000010B502A0FFF76EFD10BD00007D
:1017C000D6D8B8B4322E3073B5F7D3C30D0A0000A3
:1017D00010B502A0FFF760FD10BD0000B5A5B4CEA6
:1017E000342E3073B5F7D3C30D0A0000FFF744F869
:1017F0000723022208214FF4A870FFF749FCFFF7E6
:101800007FFE01210F20FEF749FF234A40F2DC5101
:101810000020FFF7EDFE214A4FF4FA610120FFF7A7
:10182000E7FE1F4A4FF47A610220FFF733FF31E0F1
:101830001F221CA14FF46F40FEF7E6FD1EA0FFF72C
:101840002BFD212217A14EF62070FEF7DDFD23228D
:1018500014A14EF60170FEF7D7FD40F6B830FFF741
:1018600019FE25220FA14EF62170FEF7CDFD27228D
:101870000CA14EF60270FEF7C7FD13A0FFF70CFD9A
:1018800040F6B830FFF706FE2A2206A14EF6227077
:10189000FEF7BAFDCCE7000099170008B51700085D
:1018A000D117000873746D333266345F6D61696EF1
:1018B0005C6D61696E2E63004B32B0B4BCFCB0B499
:1018C000CFC20D0A000000004B31B0B4BCFCB0B474
:1018D000CFC20D0A0000000010B504460F48006892
:1018E000082802D34FF0FF3010BD0C480268006892
:1018F000401C0A4B18600A4884541846006808289F
:1019000001D00A2C08D10548054902680548FEF7B0
:101910009EFD0020014908602046E5E71C000020EC
:101920002000002000FE0200000000000000000077
:101930000102030406070809000000000102030475
:101940006273705F53746172744F6E636554696D36
:101950006572006273705F53746172744175746F65
:1019600054696D657200000001000101000800006B
:101970004000012040800120C080012000000000C4
:10198000A0190008000000202C000000B812000878
:10199000CC1900082C00002044040000C8120008E4
:1019A000000000000024F40000000000000000001F
:1019B0000000000010000000010000000000000016
:0C19C0000000000000000000000000001B
:040000050800018965
:00000001FF
