:020000040800F2
:100000002809002015020008A90F0008A10F000808
:10001000A50F000845030008ED11000800000000CE
:10002000000000000000000000000000E70F0008D2
:100030004903000800000000E50F0008B5100008A3
:100040002F0200082F0200082F0200082F020008CC
:100050002F0200082F0200082F0200082F020008BC
:100060002F0200082F0200082F0200082F020008AC
:100070002F0200082F0200082F0200082F0200089C
:100080002F0200082F0200082F0200082F0200088C
:100090002F0200082F0200082F0200082F0200087C
:1000A0002F0200082F0200082F0200082F0200086C
:1000B0002F0200082F0200082F0200082F0200085C
:1000C0002F0200082F0200082F0200082F0200084C
:1000D0002F0200082F0200082F0200082F0200083C
:1000E0002F0200082F0200082F0200082F0200082C
:1000F0002F0200082F0200082F0200082F0200081C
:100100002F0200082F0200082F0200082F0200080B
:100110002F0200082F0200082F0200082F020008FB
:100120002F0200082F0200082F0200082F020008EB
:100130002F0200082F0200082F0200082F020008DB
:100140002F0200082F0200082F0200082F020008CB
:100150002F0200082F0200082F0200082F020008BB
:100160002F0200082F0200082F0200082F020008AB
:100170002F0200082F0200082F02000800000000D4
:100180002F0200082F020008DFF810D000F0C8F896
:100190000048004739160008AFF300802809002006
:1001A0000246D2E84F0F411CC2E8431F03B1F8E7F3
:1001B0007047024652E8000F411C42E8001303B1A9
:1001C000F8E77047024652E8000F42E8001303B117
:1001D000F9E77047024652E8000F830103D3BFF3EB
:1001E0002F8F0020704700F00040084342E80003D2
:1001F00003B1F0E77047024652E8000F800103D2D6
:10020000BFF32F8F0020704742E8001303B1F3E7DC
:10021000012070470648804706480047FEE7FEE792
:10022000FEE7FEE7FEE7FEE7FEE7FEE7FEE7FEE7A6
:1002300089110008890100082DE9F05F05460020BA
:1002400092469B4688460646814640241BE0284647
:1002500041464746224600F053F853465A46C01AD4
:10026000914110D311461846224600F03AF82D1A53
:1002700067EB01084F4622460120002100F031F8CB
:1002800017EB00094E41201EA4F10104DFDC4846B3
:1002900031462A464346BDE8F09F40EA01039B07EA
:1002A00003D009E008C9121F08C0042AFAD203E0EB
:1002B00011F8013B00F8013B521EF9D27047D2B24F
:1002C00001E000F8012B491EFBD270470022F6E73F
:1002D00010B513460A4604461946FFF7F0FF2046BC
:1002E00010BD202A04DB203A00FA02F100207047FA
:1002F0009140C2F1200320FA03F319439040704764
:10030000202A04DB203A21FA02F00021704721FA6A
:1003100002F3D040C2F120029140084319467047D1
:10032000064C074D06E0E06840F0010394E8070042
:1003300098471034AC42F6D3FFF72AFF7417000831
:100340009417000800BFFEE7704700000146074A07
:1003500012780AB9002008E0054AC1F3C623D25C2E
:10036000C1F30223DA4002F00100704700050020CB
:100370008004002070B500BF0C48866900F0EAF9DF
:10038000054600BF294609481830FFF71BFF044601
:1003900000BFB442F0D1A54206D200BF03481030DE
:1003A000FFF707FF00BF00BF284670BD0005002013
:1003B0002DE9FC47044688461546B8F1000F01D0E8
:1003C000802D02D90020BDE8FC872046FFF7BEFF44
:1003D00008B90120F7E7FFF7CDFF8246A4B200BFBE
:1003E000EFF3058010B14FF4002000E0002004433B
:1003F000464645B900231A465146204600F064F8A7
:1004000007463846DFE7082D16D8002000900190F7
:100410002A4631466846FFF740FF4FF4E02000EAE5
:100420000540044344F040705146DDE9002300F0EC
:100430004BF807463846C6E700F0AAF94FF4E0212A
:1004400001EA004930680090706801900836083D64
:1004500044EA090444F080705146DDE9002300F0CD
:1004600033F807460FB90020ADE74FF6017049EAAF
:10047000000410E030680090706801900836083D74
:1004800051462046DDE9002300F01EF80746641CB3
:100490000FB9002097E7082DECD8002000900190BC
:1004A0002A4631466846FFF7F8FE24F47F4444EAC2
:1004B000052444F000705146DDE9002300F004F803
:1004C000074638467FE700002DE9FF4F81B0884698
:1004D00091469A464FF0070B51E000BF2E48FFF7B8
:1004E00068FE064606F03F002C4901EB0014B009F7
:1004F0004FF4700101EA00510091DDE9001008435A
:100500004FF0805101EAD80108434FF0005101EA51
:10051000990108434FF0804101EA5A01084340F035
:100520004065294604F10C00FFF754FE054605F02E
:10053000806010B385F0806585F0004505F00047C8
:1005400028F000403843206029F0004038436060C4
:100550002AF000403843A060294604F10C00FFF760
:100560004AFE48B100BF0C48001DFFF722FE00BF45
:10057000012005B0BDE8F08F04E0ABF1010BBBF149
:10058000000FAAD100BF00BF03480830FFF711FEDB
:1005900000BF0020EDE700000405002080000020DF
:1005A000F0B506460C461546FF2C01D2FF2D01D3AF
:1005B0000020F0BD002200231AE0012098403040C6
:1005C000A0B1214610E002EBD1000B4F385C01F0E6
:1005D000070C012707FA0CF7384302EBD107DFF8C5
:1005E00018C00CF80700491CA942ECD920325B1C4A
:1005F000042BE2D30120DCE7800400202DE9F05F2A
:100600008246894600204149087080214048FFF712
:100610005DFE18213F4800F0B3FF80463B48006A6A
:100620003D49884208D00846384908620846A0F883
:1006300002800120C8610FE034484088404506D060
:100640003248A0F8028001203049C86104E02F48F8
:10065000C069401C2D49C8612C48C06901280BD1D4
:1006600000202A49487048608860C8604FF4806163
:100670002A48FFF72BFE0FE000270BE0274800EB8E
:100680000715E86800F0806018B1E86820F0406065
:10069000E8607F1C402FF1D31C48C06901280FD1AE
:1006A00000F064F804461CB100F05AF8064600E079
:1006B000002616484661002014498861086102E05E
:1006C00000F054F80446ECB1FE2200215046FFF73A
:1006D00067FFEF2211460F20FFF762FFFE2211464F
:1006E0000420FFF75DFFFFF745FE83460748002320
:1006F0005946C2690A48FFF7E7FEB9F1000F01D079
:1007000000F010F82046BDE8F09F00000005002032
:10071000800400205C1700086B27A5E18000002002
:1007200000FF000310B50948007808B1012010BD92
:10073000012006490870FFF71DFE044600231A46F3
:1007400021460348FFF7C0FE0120F0E70005002026
:1007500001FF00030148406870470000001000E0FE
:10076000014800687047000000000020064800684B
:1007700040F08070044908600448006840F00100BF
:100780000249086001207047FCED00E0001000E025
:1007900010B50248FFF704FD10BD00000105002060
:1007A00001480068000C7047002004E00148006820
:1007B000704700000C0000200348006803490978D6
:1007C00008440149086070470C0000201400002014
:1007D00010B50A48006840F40070084908600846EF
:1007E000006840F480600860032000F06FF80F207C
:1007F00000F006F800F02AF8002010BD003C02408E
:1008000070B504460E4800784FF47A71B1FBF0F0F1
:100810000C490968B1FBF0F5284600F0A7FB08B1C8
:10082000012070BD102C07D200222146501E00F07E
:100830000EF80548046001E00120F2E70020F0E72F
:1008400014000020000000201000002070472DE957
:10085000F05F80460D461646002700F0A7FB0746CE
:1008600039462A46334601F00700C0F1070ABAF1BB
:10087000040F02D94FF0040A01E0C0F1070AD14683
:1008800000F1040ABAF1070F02D24FF0000A01E0AA
:10089000A0F1030AD4464FF0010A0AFA09FAAAF1B4
:1008A000010A0AEA020A0AFA0CFA4FF0010B0BFAE3
:1008B0000CFBABF1010B0BEA030B4AEA0B042146DC
:1008C000404600F07BFBBDE8F09F000000BF00F059
:1008D0000702064B19684FF6FF031940044B0B4300
:1008E00043EA0221014B196000BF70470CED00E0A4
:1008F0000000FA0570B504460D460CB9012070BD24
:100900005848006800F00F00A84209D255490D7000
:100910000846006800F00F00A84201D00120EEE771
:10092000207800F0020002281DD1207800F0040099
:10093000042805D14C48006840F4E0504A4908605A
:10094000207800F00800082805D14748006840F4E6
:100950006040454908604448006820F0F000A16804
:10096000084341490860207800F00100A8B360689E
:10097000012807D13C4808380068C0F34040B8B9A6
:100980000120BCE76068022802D06068032807D114
:10099000354808380068C0F3406048B90120AEE728
:1009A000314808380068C0F3400008B90120A6E7C4
:1009B0002D48006820F00300616808432A49086058
:1009C000FFF7F4FE064609E0FFF7F0FE801B41F258
:1009D0008831884202D9032091E707E02248006865
:1009E00000F00C006168B0EB810FEDD11D4800688C
:1009F00000F00F00A84209D91A490D700846006896
:100A000000F00F00A84201D0012078E7207800F024
:100A10000400042807D11448006820F4E050E1687D
:100A2000084311490860207800F00800082808D120
:100A30000D48006820F46040216940EAC1000A497D
:100A4000086000F017F808490968C1F30311074A64
:100A5000515CC840064908600F20FFF7D1FE002016
:100A60004DE70000003C0240083802401C17000817
:100A7000000000202DE9F047002400250026A146B3
:100A80002548006800F00C0020B1042805D0082893
:100A90003AD105E0DFF8849039E0DFF8849036E061
:100AA0001D48001F006800F03F041B48001F00683D
:100AB00000F4800078B11A481749091F0968C1F38A
:100AC0008811A0FB01700146224600233846FFF73B
:100AD000B3FB05460EE011480F49091F0968C1F331
:100AE0008811A0FB01700146224600233846FFF71B
:100AF000A3FB05460848001F0068C0F30140401CE6
:100B00004600B5FBF6F902E0DFF8109000BF00BF29
:100B10004846BDE8F0870000083802400024F40091
:100B200000127A00F8B504460CB90120F8BD20780F
:100B300000F00100002874D0F948006800F00C00B3
:100B400004280DD0F648006800F00C00082813D1E6
:100B5000F348001F006800F48000B0F5800F0BD14F
:100B6000EF4808380068C0F34040002859D060685A
:100B7000002856D10120D9E700BF6068B0F5803F5A
:100B800008D1E7480838006840F48030E449083963
:100B900008601EE06068B0F5A02F0DD1E04808386D
:100BA000006840F48020DE49083908600846006883
:100BB00040F4803008600CE0D9480838006820F420
:100BC0008030D749083908600846006820F4802042
:100BD000086000BF606890B1FFF7E8FD054606E0D9
:100BE000FFF7E4FD401B642801D903209EE7CC48B1
:100BF00008380068C0F340400028F1D011E0FFF74A
:100C0000D5FD054606E0FFF7D1FD401B642801D95C
:100C100003208BE7C24808380068C0F34040002832
:100C2000F1D1207800F0020002285FD1BC480068B2
:100C300000F00C0058B1BA48006800F00C00082819
:100C40001CD1B748001F006800F48000B0B9B44858
:100C500008380068C0F3400020B1E068012801D0E6
:100C6000012063E7AE480838006820F0F8002169E9
:100C700040EAC100AA490839086037E0E06800B3DB
:100C80000120A8490860FFF791FD054606E0FFF73F
:100C90008DFD401B022801D9032047E7A0480838F2
:100CA0000068C0F340000028F1D09D480838006873
:100CB00020F0F800216940EAC1009949083908602C
:100CC00014E0002097490860FFF770FD054606E034
:100CD000FFF76CFD401B022801D9032026E790484E
:100CE00008380068C0F340000028F1D1207800F0F7
:100CF000080008282CD16069A8B101208A49086041
:100D0000FFF754FD054606E0FFF750FD401B0228A3
:100D100001D903200AE782486C300068C0F3400024
:100D20000028F1D014E000207F490860FFF73EFD65
:100D3000054606E0FFF73AFD401B022801D90320D3
:100D4000F4E677486C300068C0F340000028F1D129
:100D5000207800F00400042870D100267048383054
:100D6000006800F0805090B900BF002000906C48EF
:100D70003830006840F080506949383108600846D2
:100D8000006800F08050009000BF00BF0126674857
:100D9000006800F48070B0B96448006840F4807066
:100DA00062490860FFF702FD054606E0FFF7FEFC1A
:100DB000401B022801D90320B8E65C48006800F413
:100DC00080700028F2D000BFA068012808D15448E4
:100DD0006830006840F001005149683108601DE04A
:100DE000A06805280DD14E486830006840F0040026
:100DF0004B49683108600846006840F0010008600F
:100E00000CE047486830006820F001004449683130
:100E100008600846006820F00400086000BFA06871
:100E2000A8B1FFF7C3FC054609E0FFF7BFFC401B74
:100E300041F28831884202D9032077E626E038481B
:100E400068300068C0F340000028EED013E0FFF7E0
:100E5000ADFC054608E0FFF7A9FC401B41F28831D4
:100E6000884201D9032061E62D4868300068C0F34C
:100E700040000028EFD1012E07D129483830006802
:100E800020F0805026493831086000BFA069B8B30F
:100E90002348006800F00C0008285ED0A0690228F2
:100EA00046D100201F490866FFF780FC054606E092
:100EB000FFF77CFC401B022801D9032036E61848C6
:100EC00008380068C0F340600028F1D1D4E9070178
:100ED0000843616A40EA81110122A06AC2EB500016
:100EE00041EA00412C20005D41EA00600C49091FE5
:100EF000086001200B490866FFF758FC054607E02B
:100F00002DE0FFF753FC401B022801D903200DE61A
:100F1000034808380068C0F340600028F1D01EE0A4
:100F20000838024000004742800E474200700040EF
:100F300000200C490866FFF739FC054606E0FFF77C
:100F400035FC401B022801D90320EFE50648006864
:100F5000C0F340600028F2D101E00120E6E5002066
:100F6000E4E50000000047420038024070B5044646
:100F70002546681EB0F1807F01D301200FE0681E76
:100F80004FF0E02148610F214FF0FF3000F016F8DC
:100F900000204FF0E021886107200861002070BD2B
:100FA00000BFFEE700BFFEE7704700000248006890
:100FB000C0F30220704700000CED00E010B50028DF
:100FC00007DA0A07140E054A00F00F031B1FD4545A
:100FD00003E00A07130E024A135410BD18ED00E097
:100FE00000E400E0704770472DE9F04192B00446FC
:100FF000884615461E46002700BF002000902A485C
:10100000006840F08050284908600846006800F0F9
:101010008050009000BF00BF00BF00200090234818
:10102000006840F48040214908600846006800F4E8
:101030008040009000BF00BF012006900004079090
:1010400002200C9041050D91CDF838800F94109539
:10105000119606A8FFF766FD07460FB100BFFEE731
:101060000F20019002200290002003904FF4A05026
:1010700004904FF480500590052101A8FFF73AFC39
:1010800007460FB100BFFEE7FFF78AFB41F20101FF
:10109000884205D10648006840F480700449086021
:1010A00012B0BDE8F08100004038024000700040FE
:1010B000003C024010B5FFF77FFB0448007800B900
:1010C00010BD00F005F800BFFAE70000080000209E
:1010D00010B5002425E0284901EB041000F0A4F924
:1010E000254800EB04108078012818D1224800EB35
:1010F0000410C06898B1204901EB0411C86880470A
:1011000000201D4901EB041188701B4800EB0410FE
:10111000007820B90020184901EB0411C860601C58
:10112000C4B2042CD7DB15480068401C1349086082
:10113000084600686FF00041884202D100200F4944
:10114000086000F070F90E480078401CC0B20C49ED
:1011500008700A2803DB0020087000F063F90948D2
:101160000078401CC0B207490870322803DB002019
:10117000087000F057F910BD28000020040000207E
:10118000090000200A0000201448006840F47000A4
:10119000124908601248006840F0010010490860D8
:1011A00000200F49083108600D4800680D490840CB
:1011B0000B4908600C48091D0860081F006820F4EE
:1011C0008020091F0860002005490C3108604FF09D
:1011D00000600249803908607047000088ED00E037
:1011E00000380240FFFFF6FE1030002400BFFEE78B
:1011F0000FB4054B10B503A9044A029800F01AF881
:1012000010BC5DF814FB0000C51500082400002088
:1012100002E008C8121F08C1002AFAD170477047BF
:10122000002001E001C1121F002AFBD1704780F3AA
:10123000108870472DE9F84F994692468846054632
:10124000002706E025280AD051464A4690476D1CE3
:101250007F1C28780028F5D13846BDE8F88F002398
:1012600015F8011F18462E2915D115F8011F042362
:101270002A290DD06FF02F022978A1F13004092C12
:1012800009D800EB800002EB400008446D1CF3E736
:1012900058F8040B6D1C2A78002ADDD0632A07D089
:1012A000732A0FD0104651464A4690477F1C2AE0C9
:1012B00018F8042B8DF8002000218DF801106E46DF
:1012C000012103E058F8046B4FF0FF315A074FF04B
:1012D000000401D409E0641C84420BDA8C42FADB7E
:1012E000325D002AF7D105E0641C8C42FCDB305DE6
:1012F0000028F9D1274404E016F8010B51464A466C
:101300009047641EF8D26D1CA3E730B50446002553
:1013100004E04FF47A7000F005F86D1CA542F8D394
:1013200030BD0000F0B5034600224FF0E02675699D
:101330000F4E36680F4FB6FBF7F606FB03F400BFFF
:101340004FF0E026B16910E04FF0E026B069884226
:101350000BD0884202D20E1A324402E02E1A0E44FA
:1013600032440146A24200D300E0EDE700BFF0BDE9
:101370000000002040420F0070B500201AE000215C
:10138000234A02EB00121170214A02EB0012516055
:101390001F4A02EB001291601D4A02EB001291708D
:1013A0001B4A02EB00125170194A02EB0012D16085
:1013B000411CC8B20428E2DB164909684FF47A736D
:1013C000B1FBF3F2511EB1F1807F00D31BE0511E3F
:1013D0004FF0E023596159170F23002907DA1C0742
:1013E000260E0D4C01F00F052D1F665503E01C075E
:1013F000250E0A4C655400BF00214FF0E02399618F
:101400000721196100BF0121054A117070BD00005C
:10141000280000200000002018ED00E000E400E0BB
:101420000800002070477047416851B14168491E6B
:10143000416031B9012181704178012901D1816870
:101440004160704770B504460D461646042C06DB15
:10145000144A15A11AA0FFF7CBFE00BFFEE701203A
:10146000FFF7E5FE01201E4901EB041108701C483E
:1014700000EB041045601A4800EB04108560002062
:10148000174901EB041188700120154901EB041183
:101490004870134800EB0410C6600020FFF7C7FE39
:1014A00070BD0000471700082E2E5C535953544559
:1014B0004D5C64656C61795C64656C61792E630078
:1014C0004572726F723A2066696C652025732C66CE
:1014D000756E6374696F6E20257328290D0A0000EC
:1014E0002800002070B504460D461646042C06DB85
:1014F000134A14A119A0FFF77BFE00BFFEE70120ED
:10150000FFF795FE00201D4901EB041108701B48F0
:1015100000EB04104560194800EB041085600020C2
:10152000164901EB04118870144901EB041148704D
:10153000124800EB0410C6600020FFF778FE70BD73
:10154000341700082E2E5C53595354454D5C646586
:101550006C61795C64656C61792E63004572726FB1
:10156000723A2066696C652025732C66756E63740B
:10157000696F6E20257328290D0A000028000020BD
:1015800030B502464FF6FF7018E012F8015B80EAB2
:10159000052008230FE000F400443CB14FF6FF742F
:1015A00004EA400041F22104604003E04FF6FF747A
:1015B00004EA40005B1E002BEDD1491E0029E4D156
:1015C00030BD000070B505460C460548844203D185
:1015D000284600F07BF870BD4FF0FF30FBE70000BD
:1015E0002400002010B502A0FFF702FE10BD00008D
:1015F000D6D8B8B4312E3573B5F7D3C30D0A000071
:1016000010B502A0FFF7F4FD10BD0000D6D8B8B4A5
:10161000322E3073B5F7D3C30D0A000010B502A007
:10162000FFF7E6FD10BD0000B5A5B4CA342E307337
:10163000B5F7D3C30D0A0000FFF7CAF8072302224B
:1016400008214FF4A870FFF7CFFCFFF795FE0121AA
:101650000F20FEF7D3FFFFF765F8114A40F2DC5187
:101660000020FFF7EFFE0F4A4FF4FA610120FFF769
:10167000E9FE0D4A4FF47A610220FFF733FF0DE0D7
:101680000AA0FFF7B5FD40F6B830FFF73EFE0BA00D
:10169000FFF7AEFD40F6B830FFF737FEF0E7000089
:1016A000E5150008011600081D1600084B32B0B4FD
:1016B000BCFCB0B4CFC20D0A000000004B31B0B486
:1016C000BCFCB0B4CFC20D0A0000000010B5044647
:1016D0000F480068082802D34FF0FF3010BD0C48B7
:1016E00002680068401C0A4B18600A488454184677
:1016F0000068082801D00A2C08D10548054902686D
:101700000548FEF755FE0020014908602046E5E740
:10171000180000201C00002000FE02000000000055
:101720000000000001020304060708090000000091
:10173000010203046273705F53746172744F6E63CD
:101740006554696D6572006273705F537461727481
:101750004175746F54696D657200000001000101EC
:1017600040000000800000208004002000050020D0
:10177000000000009417000800000020280000006E
:1017800010120008BC170008280000200009000003
:10179000201200080024F4000000000000000000F7
:1017A0000000000010000000010000000000000028
:0C17B0000000000000000000000000002D
:040000050800018965
:00000001FF
