:020000040800F2
:10000000F01C002025020008C51400082912000871
:10001000C114000891030008351D0008000000000D
:1000200000000000000000000000000003150008B0
:10003000250400080000000001150008D115000883
:100040003F0200083F0200083F0200083F0200088C
:100050003F0200083F0200083F0200083F0200087C
:100060003F0200083F0200083F0200083F0200086C
:100070003F0200083F0200083F0200083F0200085C
:100080003F0200083F0200083F0200083F0200084C
:100090003F0200083F0200083F0200083F0200083C
:1000A0003F0200083F0200083F0200083F0200082C
:1000B0003F0200083F0200083F0200083F0200081C
:1000C0003F0200083F0200083F0200083F0200080C
:1000D0003F020008711A0008811A0008911A0008EE
:1000E0003F0200083F0200083F0200083F020008EC
:1000F0003F0200083F0200083F0200083F020008DC
:100100003F0200083F0200083F0200083F020008CB
:100110003F0200083F0200083F0200083F020008BB
:100120003F0200083F0200083F0200083F020008AB
:100130003F0200083F0200083F0200083F0200089B
:100140003F0200083F0200083F0200083F0200088B
:100150003F0200083F0200083F0200083F0200087B
:100160003F0200083F0200083F0200083F0200086B
:100170003F0200083F0200083F02000800000000A4
:100180003F0200083F020008DFF810D000F0EEF850
:1001900000480047DD230008AFF30080F01C00207A
:1001A0000246D2E84F0F411CC2E8431F03B1F8E7F3
:1001B0007047024652E8000F411C42E8001303B1A9
:1001C000F8E770470246D2E84F0FC2E8431F03B179
:1001D000F9E77047024652E8000F42E8001303B106
:1001E000F9E77047024652E8000F830103D3BFF3DB
:1001F0002F8F0020704700F00040084342E80003C2
:1002000003B1F0E77047024652E8000F800103D2C5
:10021000BFF32F8F0020704742E8001303B1F3E7CC
:10022000012070470648804706480047FEE7FEE782
:10023000FEE7FEE7FEE7FEE7FEE7FEE7FEE7FEE796
:10024000A5160008890100082DE9F05F0546002089
:1002500092469B4688460646814640241BE0284637
:1002600041464746224600F070F853465A46C01AA7
:10027000914110D311461846224600F057F82D1A26
:1002800067EB01084F4622460120002100F04EF89E
:1002900017EB00094E41201EA4F10104DFDC4846A3
:1002A00031462A464346BDE8F09F40EA01039B07DA
:1002B00003D009E008C9121F08C0042AFAD203E0DB
:1002C00011F8013B00F8013B521EF9D27047D2B23F
:1002D00001E000F8012B491EFBD270470022F6E72F
:1002E00010B513460A4604461946FFF7F0FF2046AC
:1002F00010BD421C10F8011B0029FBD1801A704769
:1003000030B50B46014600202022012409E021FAE5
:1003100002F59D4205D303FA02F5491B04FA02F5E2
:100320002844151EA2F10102F1DC30BD202A04DBB5
:10033000203A00FA02F1002070479140C2F12003F8
:1003400020FA03F3194390407047202A04DB203A37
:1003500021FA02F00021704721FA02F3D040C2F1E5
:10036000200291400843194670470000064C074D93
:1003700006E0E06840F0010394E807009847103475
:10038000AC42F6D3FFF704FF8C240008AC2400082D
:1003900000BFFEE710B504460CB9094810BD012C9A
:1003A00001D10848FAE7022C01D10748F6E74FF4DB
:1003B000917206A10FA001F0BFFC0020EEE7000043
:1003C0005C00002088080020C01000202E2E5C5306
:1003D000595354454D5C75736172745F6669666FFD
:1003E0005C6273705F75736172745F6669666F2EAD
:1003F0006300000057726F6E6720706172616D65F7
:10040000746572732076616C75653A2066696C65F7
:10041000202573206F6E206C696E652025640D0A9F
:10042000000000007047000070B500BF12488669E8
:1004300000F070F90446B44211D200BF01210F4808
:10044000FFF7C0FE58B90C480069401C0A49086112
:1004500000BF00210948FFF7B5FE00BF00BF00BF85
:10046000214605481830FFF7B5FE054600BFAE42ED
:10047000DCD1204670BD0000C080012000000120BA
:100480002DE9FF4F81B0884691469A464FF0070B01
:1004900051E000BF2E48FFF78CFE0646C6F30A0067
:1004A0002C4901EB0014F00A4FF4700101EA0051ED
:1004B0000091DDE9001008434FF0805101EAD801B6
:1004C00008434FF0005101EA990108434FF0804181
:1004D00001EA5A01084340F04065294604F10C0046
:1004E000FFF780FE054605F0806010B385F080655B
:1004F00085F0004505F0004728F0004038432060B3
:1005000029F00040384360602AF000403843A06082
:10051000294604F10C00FFF776FE48B100BF0C48F5
:10052000001DFFF746FE00BF012005B0BDE8F08FBB
:1005300004E0ABF1010BBBF1000FAAD100BF00BF7B
:1005400003480830FFF735FE00BF0020EDE700004C
:10055000C480012040000120F0B506460C46154637
:10056000FF2C01D2FF2D01D30020F0BD002200237B
:100570001AE0012098403040A0B1214610E002EB83
:10058000D1000B4F385C01F0070C012707FA0CF77C
:10059000384302EBD107DFF818C00CF80700491CFC
:1005A000A942ECD920325B1C042BE2D30120DCE70A
:1005B000408001202DE9F05F8246894600204249B3
:1005C000087080214148FFF789FE1821404801F05A
:1005D000B3FE80463C48006A3E49884208D008463F
:1005E000394908620846A0F802800120C8610FE07E
:1005F00035484088404506D03348A0F802800120A5
:100600003149C86104E03048C069401C2E49C861C6
:100610002D48C06901280BD100202B494870486043
:100620008860C8604FF400412B48FFF757FE10E088
:1006300000270BE0284800EB0715E86800F0806011
:1006400018B1E86820F04060E8607F1CB7F5006FE3
:10065000F0D31D48C069012811D100F067F80446A5
:100660001CB100F05DF8064600E000261648466121
:1006700000201549886108611849087002E000F0FF
:1006800055F80446ECB1FE2200215046FFF764FF06
:10069000EF2211460F20FFF75FFFFE2211460420D4
:1006A000FFF75AFFFFF7C0FE83460748002359466D
:1006B000C2690B48FFF7E4FEB9F1000F01D000F06A
:1006C00011F82046BDE8F09FC08001204080012045
:1006D000742400086B27A5E14000012000000120E0
:1006E00000FF000310B50948007808B1012010BDD3
:1006F000012006490870FFF797FE044600231A46BA
:1007000021460348FFF7BCFE0120F0E7C08001202E
:1007100001FF00030148406870470000001000E03E
:10072000014800687047000000000020064800688B
:1007300040F08070044908600448006840F00100FF
:100740000249086001207047FCED00E0001000E065
:10075000F8B502460B460025002400200021DCE00D
:10076000012606FA01F51E6806EA0504AC4273D1BB
:100770005E68022E02D05E68122E13D1CF0802F1FD
:10078000200656F827004E07F70E0F26BE40B0434E
:100790004F07FF0E1E69BE403043CF0802F120060E
:1007A00046F8270010684F000326BE40B0431E796C
:1007B00006F003064F00BE40304310605E68012E15
:1007C00008D05E68022E05D05E68112E02D05E68E9
:1007D000122E13D190684F000326BE40B0434F0045
:1007E000DE68BE4030439060506801268E40B043C2
:1007F0001E79C6F300168E4030435060D0684F001B
:100800000326BE40B0434F009E68BE403043D060D8
:100810005E6806F08056B6F1805F7DD100BF00268D
:100820000096404E366846F480463E4F3E603E4657
:10083000366806F48046009600BF00BF3A4E8F0827
:1008400056F827008E07370F0F26BE40B043374EAD
:10085000B24202D1002624E05EE0354EB24201D120
:1008600001261EE0334EB24201D1022619E0324E7B
:10087000B24201D1032614E0304EB24201D1042627
:100880000FE02F4EB24201D105260AE02D4EB242B2
:1008900001D1062605E02C4EB24201D1072600E028
:1008A00008268F073F0FBE4030431F4E8F0846F883
:1008B0002700264E3068A0435E6806F48036B6F501
:1008C000803F00D12043214E3060361D3068A04368
:1008D0005E6806F40036B6F5003F00D120431B4E9B
:1008E000361D3060361D3068A0435E6806F4801601
:1008F000B6F5801F00D12043144E08363060361DF7
:100900003068A0435E6806F40016B6F5001F00D1FB
:1009100020430E4E0C363060491C1029FFF420AFE6
:10092000F8BD000044380240083801400000024091
:100930000004024000080240000C02400010024087
:100940000014024000180240001C0240003C01401C
:1009500001480068000C7047002004E0014800686E
:10096000704700000C000020034800680349097824
:1009700008440149086070470C0000201400002062
:1009800010B50A48006840F400700849086008463D
:10099000006840F480600860032000F07BF80F20BE
:1009A00000F006F800F02AF8002010BD003C0240DC
:1009B00070B504460E4800784FF47A71B1FBF0F040
:1009C0000C490968B1FBF0F5284600F0D9FB08B1E5
:1009D000012070BD102C07D200222146501E00F0CD
:1009E0001BF80548046001E00120F2E70020F0E771
:1009F000140000200000002010000020704700BFFD
:100A000000F01F02012191404209920002F1E02210
:100A1000C2F8001100BF70472DE9F05F80460D4617
:100A20001646002700F050FD074639462A46334651
:100A300001F00700C0F1070ABAF1040F02D94FF024
:100A4000040A01E0C0F1070AD14600F1040ABAF134
:100A5000070F02D24FF0000A01E0A0F1030AD446CA
:100A60004FF0010A0AFA09FAAAF1010A0AEA020A8F
:100A70000AFA0CFA4FF0010B0BFA0CFBABF1010B6D
:100A80000BEA030B4AEA0B042146404600F024FD22
:100A9000BDE8F09F00BF00F00702064B19684FF653
:100AA000FF031940044B0B4343EA0221014B196039
:100AB00000BF70470CED00E00000FA0570B5044679
:100AC0000D460CB9012070BD5848006800F00F00B9
:100AD000A84209D255490D700846006800F00F0081
:100AE000A84201D00120EEE7207800F002000228A1
:100AF0001DD1207800F00400042805D14C4800687E
:100B000040F4E0504A490860207800F008000828C6
:100B100005D14748006840F46040454908604448B2
:100B2000006820F0F000A16808434149086020787F
:100B300000F00100A8B36068012807D13C480838DC
:100B40000068C0F34040B8B90120BCE760680228E3
:100B500002D06068032807D1354808380068C0F320
:100B6000406048B90120AEE7314808380068C0F35A
:100B7000400008B90120A6E72D48006820F00300D6
:100B8000616808432A490860FFF7E8FE064609E065
:100B9000FFF7E4FE801B41F28831884202D903202E
:100BA00091E707E02248006800F00C006168B0EBB4
:100BB000810FEDD11D48006800F00F00A84209D94F
:100BC0001A490D700846006800F00F00A84201D0D5
:100BD000012078E7207800F00400042807D11448A9
:100BE000006820F4E050E16808431149086020786B
:100BF00000F00800082808D10D48006820F4604083
:100C0000216940EAC1000A49086000F03DF808493E
:100C10000968C1F30311074A515CC84006490860DE
:100C20000F20FFF7C5FE00204DE70000003C02400A
:100C30000838024034240008000000200148006801
:100C4000704700000000002000B5FFF7F7FF0449DF
:100C50000968C1F38221034A515CC84000BD00000D
:100C6000083802404424000800B5FFF7E7FF0449B4
:100C70000968C1F34231034A515CC84000BD00001D
:100C800008380240442400082DE9F04700240025DC
:100C90000026A1462548006800F00C0020B1042879
:100CA00005D008283AD105E0DFF8849039E0DFF874
:100CB000849036E01D48001F006800F03F041B4888
:100CC000001F006800F4800078B11A481749091F16
:100CD0000968C1F38811A0FB017001462246002378
:100CE0003846FFF7B1FA05460EE011480F49091FD3
:100CF0000968C1F38811A0FB017001462246002358
:100D00003846FFF7A1FA05460848001F0068C0F3FF
:100D10000140401C4600B5FBF6F902E0DFF81090F8
:100D200000BF00BF4846BDE8F08700000838024019
:100D30000024F40000127A00F8B504460CB9012032
:100D4000F8BD207800F00100002874D0F948006850
:100D500000F00C0004280DD0F648006800F00C00EC
:100D6000082813D1F348001F006800F48000B0F594
:100D7000800F0BD1EF4808380068C0F340400028CE
:100D800059D06068002856D10120D9E700BF6068BB
:100D9000B0F5803F08D1E7480838006840F480305B
:100DA000E449083908601EE06068B0F5A02F0DD155
:100DB000E0480838006840F48020DE4908390860BF
:100DC0000846006840F4803008600CE0D9480838D4
:100DD000006820F48030D749083908600846006868
:100DE00020F48020086000BF606890B1FFF7B6FD76
:100DF000054606E0FFF7B2FD401B642801D9032039
:100E00009EE7CC4808380068C0F340400028F1D085
:100E100011E0FFF7A3FD054606E0FFF79FFD401B2D
:100E2000642801D903208BE7C24808380068C0F362
:100E300040400028F1D1207800F0020002285FD164
:100E4000BC48006800F00C0058B1BA48006800F0D7
:100E50000C0008281CD1B748001F006800F480006F
:100E6000B0B9B44808380068C0F3400020B1E06869
:100E7000012801D0012063E7AE480838006820F05F
:100E8000F800216940EAC100AA490839086037E042
:100E9000E06800B30120A8490860FFF75FFD054640
:100EA00006E0FFF75BFD401B022801D9032047E75E
:100EB000A04808380068C0F340000028F1D09D48E1
:100EC0000838006820F0F800216940EAC10099491B
:100ED0000839086014E0002097490860FFF73EFDDC
:100EE000054606E0FFF73AFD401B022801D9032022
:100EF00026E7904808380068C0F340000028F1D188
:100F0000207800F0080008282CD16069A8B10120E1
:100F10008A490860FFF722FD054606E0FFF71EFD3F
:100F2000401B022801D903200AE782486C30006880
:100F3000C0F340000028F1D014E000207F49086091
:100F4000FFF70CFD054606E0FFF708FD401B0228F1
:100F500001D90320F4E677486C300068C0F3400004
:100F60000028F1D1207800F00400042870D1002678
:100F700070483830006800F0805090B900BF002001
:100F800000906C483830006840F080506949383132
:100F900008600846006800F08050009000BF00BF65
:100FA00001266748006800F48070B0B964480068A2
:100FB00040F4807062490860FFF7D0FC054606E007
:100FC000FFF7CCFC401B022801D90320B8E65C489F
:100FD000006800F480700028F2D000BFA0680128EB
:100FE00008D154486830006840F001005149683128
:100FF00008601DE0A06805280DD14E4868300068E3
:1010000040F004004B49683108600846006840F031
:10101000010008600CE047486830006820F00100DB
:101020004449683108600846006820F00400086000
:1010300000BFA068A8B1FFF791FC054609E0FFF7E3
:101040008DFC401B41F28831884202D9032077E6AB
:1010500026E0384868300068C0F340000028EED031
:1010600013E0FFF77BFC054608E0FFF777FC401B29
:1010700041F28831884201D9032061E62D48683069
:101080000068C0F340000028EFD1012E07D12948A5
:101090003830006820F0805026493831086000BFA1
:1010A000A069B8B32348006800F00C0008285ED09F
:1010B000A069022846D100201F490866FFF74EFCB0
:1010C000054606E0FFF74AFC401B022801D9032031
:1010D00036E6184808380068C0F340600028F1D1AF
:1010E000D4E907010843616A40EA81110122A06A3C
:1010F000C2EB500041EA00412C20005D41EA006053
:101100000C49091F086001200B490866FFF726FCFF
:10111000054607E02DE0FFF721FC401B022801D91E
:1011200003200DE6034808380068C0F3406000283B
:10113000F1D01EE00838024000004742800E4742CE
:101140000070004000200C490866FFF707FC0546C8
:1011500006E0FFF703FC401B022801D90320EFE55E
:1011600006480068C0F340600028F2D101E0012089
:10117000E6E50020E4E500000000474200380240B8
:1011800070B504462546681EB0F1807F01D301206A
:101190000FE0681E4FF0E02148610F214FF0FF3053
:1011A00000F09AF900204FF0E021886107200861E3
:1011B000002070BD10B504460CB9012010BDA06917
:1011C00000B100E000BF94F8390028B9002084F88D
:1011D0003800204600F027F8242084F839002068E1
:1011E000C06820F400502168C860204600F08CFAE6
:1011F0002068006920F490402168086120684069F7
:1012000020F02A00216848612068C06840F400503E
:101210002168C8600020E063202084F8390084F849
:101220003A000020CAE7704700BFFEE700B587B06C
:1012300000BF002001909C48006840F001009A49DE
:1012400008600846006800F00100019000BF00BF80
:1012500000BF002001900846006840F001000860CF
:101260000846006800F00100019000BF00BF00BF09
:10127000002001908C481430006840F010008A492A
:10128000143108600846006800F01000019000BFAB
:1012900000BF481502900220039001200490032013
:1012A00005900720069002A98048FFF751FA4FF4F5
:1012B000806002900720069002A97C48FFF748FA58
:1012C000012200212520FFF7A7FB2520FFF797FB30
:1012D0000C2300224FF4E131754800F007FF7448F9
:1012E000006820F04000724908600846006820F05D
:1012F000200008600846C06840F02000C86000BFB9
:10130000002001906848006840F0010066490860CC
:101310000846006800F00100019000BF00BF00BF58
:10132000002001900846006840F00100086008466F
:10133000006800F00100019000BF00BF00BF002066
:10134000019059481030006840F40030564910317F
:1013500008600846006800F40030019000BF00BF3C
:1013600004200290022003900120049003200590A5
:101370000720069002A94D48FFF7EAF908200290DD
:101380000720069002A94948FFF7E2F9022200214E
:101390002620FFF741FB2620FFF731FB0C2300221C
:1013A0004FF41651434800F0A1FE4248006820F077
:1013B0004000404908600846006820F020000860AE
:1013C0003C480C30006840F020003A490C3108607D
:1013D00000BF002001903448006840F0020032490C
:1013E00008600846006800F00200019000BF00BFDE
:1013F00000BF002001900846006840F0020008602D
:101400000846006800F00200019000BF00BF00BF66
:101410000020019024481030006840F480202249C8
:10142000103108600846006800F48020019000BF79
:1014300000BF0815029002200390012004900320B1
:1014400005900720069002A91B48FFF781F94FF489
:10145000006002900720069002A91748FFF778F96C
:10146000032200212720FFF7D7FA2720FFF7C7FA2A
:101470000C2300224FF41651104800F037FE0F489D
:10148000006820F040000D4908600846006820F020
:101490002000086009480C30006840F0200007492F
:1014A0000C31086007B000BD303802400000024037
:1014B0000010014000440040000402400048004089
:1014C00000BFFEE77047000002480068C0F302203A
:1014D000704700000CED00E010B5002807DA0A079D
:1014E000140E054A00F00F031B1FD45403E00A0733
:1014F000130E024A135410BD18ED00E000E400E0A2
:10150000704770472DE9F04192B004468846154671
:101510001E46002700BF002000902A48006840F0C7
:101520008050284908600846006800F0805000900C
:1015300000BF00BF00BF002000902348006840F4B7
:101540008040214908600846006800F4804000900F
:1015500000BF00BF012006900004079002200C90FD
:1015600041050D91CDF838800F941095119606A87D
:10157000FFF7E2FB07460FB100BFFEE70F20019027
:1015800002200290002003904FF4A05004904FF4EA
:1015900080500590052101A8FFF790FA07460FB18A
:1015A00000BFFEE7FFF7D4F941F20101884205D1FF
:1015B0000648006840F480700449086012B0BDE835
:1015C000F08100004038024000700040003C0240C2
:1015D00010B5FFF7C9F90448007800B910BD00F054
:1015E00005F800BFFAE700000800002010B500244D
:1015F00025E0284901EB041000F0C0FD254800EB70
:1016000004108078012818D1224800EB0410C0682B
:1016100098B1204901EB0411C868804700201D499A
:1016200001EB041188701B4800EB0410007820B90E
:101630000020184901EB0411C860601CC4B2042CDE
:10164000D7DB15480068401C13490860084600684D
:101650006FF00041884202D100200F49086000F07D
:10166000CAFC0E480078401CC0B20C4908700A2819
:1016700003DB0020087000F0BDFC09480078401C26
:10168000C0B207490870322803DB0020087000F060
:10169000B3FC10BD1C000020040000200900002045
:1016A0000A0000201448006840F4700012490860E5
:1016B0001248006840F001001049086000200F49FE
:1016C000083108600D4800680D4908400B49086062
:1016D0000C48091D0860081F006820F48020091FBD
:1016E0000860002005490C3108604FF00060024995
:1016F000803908607047000088ED00E00038024043
:10170000FFFFF6FE103000242DE9F041044620686A
:10171000006920F44050E1680843216808612169AC
:10172000A068084361690843E16940EA010520684F
:10173000C06849F20C61884328432168C86020686A
:10174000406920F44070A169084321684861E0695C
:10175000B0F5004F7ED1C4492068884203D0C34908
:10176000206888425DD1FFF77FFA00EBC00101EBF2
:10177000001061684900B0FBF1F06421B0FBF1F0AA
:101780000601FFF771FA00EBC00101EB0010616880
:101790004900B0FBF1F7FFF767FA00EBC00101EB7E
:1017A000001061684900B0FBF1F06421B0FBF1F07A
:1017B00000EBC00101EB0010A7EB8000322101EB30
:1017C000C0006421B0FBF1F000F0F80006EB400629
:1017D000FFF74AFA00EBC00101EB00106168490015
:1017E000B0FBF1F7FFF740FA00EBC00101EB00108E
:1017F00061684900B0FBF1F06421B0FBF1F000EB4F
:10180000C00101EB0010A7EB8000322101EBC0000A
:101810006421B0FBF1F000F00700304421688860DB
:1018200020E1FFF711FA00EBC00101EB0010616845
:101830004900B0FBF1F06421B0FBF1F00601FFF7C5
:1018400003FA00EBC00101EB001061684900B0FB36
:10185000F1F700E045E0FFF7F7F900EBC00101EB1D
:10186000001061684900B0FBF1F06421B0FBF1F0B9
:1018700000EBC00101EB0010A7EB8000322101EB6F
:10188000C0006421B0FBF1F000F0F80006EB400668
:10189000FFF7DAF900EBC00101EB001061684900C5
:1018A000B0FBF1F7FFF7D0F900EBC00101EB00103E
:1018B00061684900B0FBF1F06421B0FBF1F000EB8E
:1018C000C00101EB0010A7EB8000322101EBC0004A
:1018D0006421B0FBF1F000F007003044216888601B
:1018E000C0E061492068884203D06049206888428E
:1018F0005CD1FFF7B9F900EBC00101EB00106168A2
:101900008900B0FBF1F6FFF7AFF900EBC00101EB86
:10191000001061688900B0FBF1F06421B0FBF1F0C8
:1019200000EBC00101EB0010A6EB8000322101EBBF
:1019300000106421B0FBF1F000F0F006FFF794F91D
:1019400000EBC00101EB001061688900B0FBF1F011
:101950006421B0FBF1F006EB0016FFF785F900EB10
:10196000C00101EB001061688900B0FBF1F7FFF7DF
:101970007BF900EBC00101EB001061688900B0FB4E
:10198000F1F06421B0FBF1F000EBC00101EB0010BD
:10199000A7EB8000322101EB00106421B0FBF1F0D5
:1019A00000F00F003044216888605BE0FFF74CF9DD
:1019B00000EBC00101EB001061688900B0FBF1F69B
:1019C000FFF742F900EBC00101EB001061688900EC
:1019D000B0FBF1F06421B0FBF1F000EBC00101EBD2
:1019E0000010A6EB8000322101EB00106421B0FB57
:1019F000F1F000F0F006FFF727F900EBC00101EB72
:101A0000001061688900B0FBF1F06421B0FBF1F0D7
:101A100006EB0016FFF718F900EBC00101EB001010
:101A200061688900B0FBF1F7FFF70EF900EBC00128
:101A300001EB001061688900B0FBF1F06421B0FB9C
:101A4000F1F000EBC00101EB0010A7EB80003221A8
:101A500001EB00106421B0FBF1F000F00F00304406
:101A600021688860BDE8F081001001400014014049
:101A700010B5024800F039F810BD00005C000020ED
:101A800010B5024800F031F810BD000088080020B1
:101A900010B5024800F029F810BD0000C010002069
:101AA00070B504460D46012000F068F9668B0020F1
:101AB00000F064F90EB9002070BD218BA068405C75
:101AC0002870012000F05AF9208B401C80B220833E
:101AD000E189884201DB00202083608B401E608307
:101AE000002000F04BF90120E6E72DE9F041044623
:101AF000206805682068C6682068D0F8148005F062
:101B00002000D8B120684068C7B2E18AA068475475
:101B1000E08A401C80B2E082E189884201DB00203B
:101B2000E082608BE189884202DA608B401C60832E
:101B3000606A10B13846616A884700BF05F08000CE
:101B400028B306F0800010B3A08A60B92068C0688E
:101B500020F080002168C8602068C06840F0400024
:101B60002168C86013E0012084F82800618A606859
:101B7000405C21684860608A401C80B26082A18914
:101B8000884201DB00206082A08A401EA08205F00E
:101B9000400018B306F0400000B3A08A68B920687E
:101BA000C06820F040002168C860206A08B1206A3F
:101BB0008047002084F8280010E0618A6068405C5B
:101BC00021684860608A401C80B26082A189884296
:101BD00001DB00206082A08A401EA082BDE8F08167
:101BE000F8B504460F461646002539E01EE00120F0
:101BF00000F0C4F8A08A0090002000F0BFF8A0898F
:101C0000BDF80010884200DD11E0A089BDF8001089
:101C100088420AD12068C06800F0800028B9206896
:101C2000C06840F080002168C86000BFDFE700BFE7
:101C3000785D228A61688854012000F09FF8208A2C
:101C4000401C80B22082A189884201DB00202082D2
:101C5000A08A401CA082002000F090F8681C85B289
:101C6000B542C3DB2068C06840F080002168C860CE
:101C7000F8BD0000234824490860244848602448EF
:101C800088604FF480608881C88100200882488283
:101C9000C882088348838882C8610862486281F8E4
:101CA00028001C481C4908601C4848601C48886083
:101CB0000A2088814FF40060C88100200882488291
:101CC000C882088348838882C8610862486281F8B4
:101CD0002800144814490860144848601448886073
:101CE0004FF480608881C881002008824882C882C1
:101CF000088348838882C8610862486281F82800A6
:101D000070470000001001405C00002088000020A7
:101D1000880400200044004088080020B408002007
:101D2000BE08002000480040C0100020EC10002039
:101D3000EC14002000BFFEE70FB4054B10B503A95B
:101D4000044A029800F01EF810BC5DF814FB000075
:101D50007B2300081800002002E008C8121F08C1F9
:101D6000002AFAD170477047002001E001C1121F1C
:101D7000002AFBD1704780F31088704780F31088E9
:101D8000704700002DE9FF4F8BB09A460F4605467D
:101D9000002606E025280BD052460D9990476D1C71
:101DA000761C28780028F5D10FB03046BDE8F08FBA
:101DB0000024A0460122604900E0044315F8013FD9
:101DC000203B02FA03F00842F7D128782E2817D1D9
:101DD00015F8010F44F004042A280ED06FF02F02EA
:101DE0002878A0F1300109290AD808EB880102EB14
:101DF000410100EB01086D1CF2E757F8048B6D1CE4
:101E0000287869283ED006DC0028CDD063280BD086
:101E1000642804D136E0732810D075284BD0524680
:101E20000D999047761C85E017F8040B8DF800009B
:101E300000208DF80100E946012003E057F8049BDB
:101E40004FF0FF3061074FF0000401D40AE0641C3A
:101E500044450DDA8442FADB19F804100029F6D162
:101E600006E0641C8442FCDB19F804100029F8D158
:101E7000264404E019F8010B52460D999047641E60
:101E8000F8D257E001CF4FF00A0B002802DA4042A7
:101E90002D2102E0210504D52B218DF824100121EC
:101EA00003E0E10705D02021F7E70DF120090891B3
:101EB0000CE00021F9E701CF4FF00A0BF9E7594692
:101EC000FEF71EFA01F1300209F8012D0028F6D1C3
:101ED000ADEB090000F1200B600701D44FF00108C1
:101EE000D84502DDA8EB0B0000E00020804600246E
:101EF00006E009A85246005D0D999047641C761CC7
:101F000008988442F5DB04E0302052460D99904752
:101F1000761CB8F10001A8F10108F5DC05E019F81C
:101F2000010B52460D999047761CBBF10001ABF1B5
:101F3000010BF4DC6D1C34E70928010070B50020AA
:101F40001AE00021234A02EB00121170214A02EB31
:101F5000001251601F4A02EB001291601D4A02EB11
:101F6000001291701B4A02EB00125170194A02EBE9
:101F70000012D160411CC8B20428E2DB164909688E
:101F80004FF47A73B1FBF3F2511EB1F1807F00D3AD
:101F90001BE0511E4FF0E023596159170F23002910
:101FA00007DA1C07260E0D4C01F00F052D1F665594
:101FB00003E01C07250E0A4C655400BF00214FF0BA
:101FC000E02399610721196100BF0121054A1170C1
:101FD00070BD00001C0000200000002018ED00E093
:101FE00000E400E00800002010B5FFF743FEFFF713
:101FF0001DF910BD7047704710B596B0142227A187
:1020000010A8FEF752F9142229A10BA8FEF74DF9EA
:1020100014222CA106A8FEF748F914222EA101A82B
:10202000FEF743F915A9012000F058F9A0B39DF877
:102030005400312806D032280ED0332816D0342848
:1020400028D11DE010A8FEF754F984B2224610A949
:10205000012000F052F91EE00BA8FEF74AF984B205
:1020600022460BA9012000F048F914E006A8FEF76B
:1020700040F984B2224606A9012000F03EF90AE0A8
:1020800001A8FEF736F984B2224601A9012000F02A
:1020900034F900BF00BF00BF16B010BDBDD3CAD514
:1020A000B5BDB4AEBFDAC3FCC1EE310D0A0000000D
:1020B000BDD3CAD5B5BDB4AEBFDAC3FCC1EE320DD7
:1020C0000A000000BDD3CAD5B5BDB4AEBFDAC3FCAB
:1020D000C1EE330D0A000000BDD3CAD5B5BDB4AE04
:1020E000BFDAC3FCC1EE340D0A000000F0B591B0B8
:1020F00004460D4617461E460194029500210391A1
:102100000491059707910696089101A8FFF752F8E8
:1021100028B140F2471203A10CA0FFF70DFE11B049
:10212000F0BD00002E2E5C53595354454D5C757321
:102130006172745F6669666F5C6273705F7573610C
:1021400072745F6669666F2E6300000057726F6E6F
:102150006720706172616D65746572732076616C61
:1021600075653A2066696C65202573206F6E206C5A
:10217000696E652025640D0A00000000416851B1B8
:102180004168491E416031B90121817041780129BE
:1021900001D181684160704770B504460D4616460E
:1021A000042C06DB144A15A11BA0FFF7C5FD00BFD8
:1021B000FEE70120FFF7DFFD01201F4901EB0411BD
:1021C00008701D4800EB041045601B4800EB04102C
:1021D00085600020184901EB041188700120164920
:1021E00001EB04114870144800EB0410C660002095
:1021F000FFF7C1FD70BD00005F2400082E2E5C5368
:10220000595354454D5C7469636B74696D5C7469B2
:10221000636B74696D2E63004572726F723A20664B
:10222000696C652025732C66756E6374696F6E200A
:10223000257328290D0A00001C00002070B50446F3
:102240000D461646042C06DB134A14A11AA0FFF70C
:1022500073FD00BFFEE70120FFF78DFD00201E4942
:1022600001EB041108701C4800EB041045601A488B
:1022700000EB041085600020174901EB0411887001
:10228000154901EB04114870134800EB0410C660B7
:102290000020FFF770FD70BD4C2400082E2E5C530B
:1022A000595354454D5C7469636B74696D5C746912
:1022B000636B74696D2E63004572726F723A2066AB
:1022C000696C652025732C66756E6374696F6E206A
:1022D000257328290D0A00001C00002070B5054652
:1022E0000E462846FEF756F804460CB9002070BD8D
:1022F00031462046FFF7D4FBF9E72DE9F0410546CA
:102300000E4617462846FEF745F804460CB9BDE8C8
:10231000F081E06908B1E06980473A4631462046DD
:10232000FFF75EFC00BFF2E713B50446012201A9E6
:102330002046FFF7E2FF1CBD30B502464FF6FF70A6
:1023400018E012F8015B80EA052008230FE000F492
:1023500000443CB14FF6FF7404EA400041F221040E
:10236000604003E04FF6FF7404EA40005B1E002B60
:10237000EDD1491E0029E4D130BD70B504460D46AB
:10238000E1B20020FFF7D0FF204670BD10B502A0DB
:10239000FFF7D2FC10BD0000D6D8B8B4312E35738B
:1023A000B5F7D3C30D0A000010B502A0FFF7C4FCB7
:1023B00010BD0000D6D8B8B4322E3073B5F7D3C3F1
:1023C0000D0A000010B502A0FFF7B6FC10BD00001A
:1023D000B5A5B4CE342E30730D0A0000FEF7D0FA46
:1023E0000723022208214FF4A870FFF78BF8FFF7AC
:1023F000A5FDFFF7F9FD01210F20FEF7DBF80A4AE2
:1024000040F2DC510020FFF7C7FE084A4FF4FA61A2
:102410000120FFF7C1FE064A4FF47A610320FFF75F
:102420000DFF00BFFEE700008D230008A923000870
:10243000C5230008000000000000000001020304A2
:102440000607080900000000010203046273705FC0
:1024500053746172744F6E636554696D6572006286
:1024600073705F53746172744175746F54696D65F4
:10247000720000000100010100080000400001207E
:1024800040800120C080012000000000AC24000832
:10249000000000201C000000581D0008C82400088F
:1024A0001C000020D41C0000681D00080024F4005B
:1024B000000000000000000000000000100000000C
:0824C000010000000000000013
:040000050800018965
:00000001FF
